:020000040800F2
:10000000FFFF0220350C0008850C0008850C000855
:10001000850C0008850C0008850C00080000000015
:10002000000000000000000000000000850C000837
:10003000850C000800000000850C0008850C0008F5
:10004000850C0008850C0008850C0008850C00084C
:10005000850C0008850C0008850C0008850C00083C
:10006000850C0008850C0008850C0008850C00082C
:10007000850C0008850C0008850C0008850C00081C
:10008000850C0008850C0008850C0008850C00080C
:10009000850C0008850C0008850C0008850C0008FC
:1000A000850C0008850C0008850C0008850C0008EC
:1000B000850C0008850C0008850C0008850C0008DC
:1000C000850C0008850C0008850C0008850C0008CC
:1000D000850C0008850C0008850C0008850C0008BC
:1000E000850C0008850C0008850C0008850C0008AC
:1000F000850C0008850C0008850C0008850C00089C
:10010000850C0008850C0008850C0008850C00088B
:10011000850C0008850C0008850C0008850C00087B
:10012000850C0008850C0008850C0008850C00086B
:10013000850C0008850C0008850C0008850C00085B
:10014000850C0008850C0008850C0008850C00084B
:10015000850C0008850C0008850C0008850C00083B
:10016000850C0008850C0008850C0008850C00082B
:10017000850C0008850C0008850C000800000000B4
:10018000850C0008850C0008850C0008850C00080B
:10019000850C0008850C0008850C0008850C0008FB
:0C01A000850C0008850C0008850C000888
:1001AC0010B5054C237833B9044B13B10448AFF3A5
:1001BC0000800123237010BD4804002000000000C3
:1001CC00880C0008084B10B51BB108480849AFF360
:1001DC0000800848036803B910BD074B002BFBD007
:1001EC00BDE81040184700BF00000000880C000854
:1001FC004C040020480400200000000080B582B0B0
:10020C0000AF786000F00EFA7B6800221A607B6801
:10021C0005221A607B6800225A607B681F22DA6014
:10022C000837BD4680BD00BF80B483B000AF786096
:10023C0039607B689B693A68013AD2006FF0030120
:10024C0001FA02F21A407B689A617B689B693A68F2
:10025C00013AD200012101FA02F21A437B689A6139
:10026C007B689A6939681F4B0B40002B03DA013B02
:10027C0063F00103013319460B465B075B1ADB0085
:10028C000C336FF00F0101FA03F31A407B689A618B
:10029C007B689A693968134B0B40002B03DA013BDE
:1002AC0063F00103013319460B465B075B1ADB0055
:1002BC000C33032101FA03F31A437B689A617B68C0
:1002CC0000221A627B681B6A3A68013A920001218B
:1002DC0001FA02F21A437B681A620C37BD465DF8CC
:1002EC00047B70470100008080B483B000AF78605D
:1002FC007B6800229A617B680022DA617B680022AD
:10030C001A627B681B6A43F4885343F011037A68C2
:10031C0013627B689B6963F003027B689A617B685C
:10032C009B6963F440727B689A617B68DB6963F05C
:10033C0003027B68DA617B68DB6963F440727B687B
:10034C00DA617B689B6943F070027B689A610C37B9
:10035C00BD465DF8047B704780B483B000AF786015
:10036C007B6800221A610C37BD465DF8047B704730
:10037C0080B483B000AF786039603B687A685A63A8
:10038C000C37BD465DF8047B704700BF80B483B06A
:10039C0000AF78607B6800225A610C37BD465DF86F
:1003AC00047B704780B483B000AF786039603B68E1
:1003BC007A685A620C37BD465DF8047B704700BF03
:1003CC0080B483B000AF786039603B687A689A6219
:1003DC000C37BD465DF8047B704700BF80B483B01A
:1003EC0000AF786039603B687A68DA620C37BD46DA
:1003FC005DF8047B704700BF80B584B000AFF86037
:10040C00B9607A60786800F035F97B681B68BA6867
:10041C005200032101FA02F21A437B681A607B68CE
:10042C00DB68BA685200032101FA02F2D2431A4087
:10043C007B68DA607B68DB68BA685200F96801FA9D
:10044C0002F21A437B68DA601037BD4680BD00BFEC
:10045C0080B584B000AFF860B9607A603B607868B2
:10046C0000F008F97B681B68BA685200032101FA96
:10047C0002F2D2431A407B681A607B681B68BA6828
:10048C005200022101FA02F21A437B681A607B685F
:10049C00DB68BA685200032101FA02F2D2431A4017
:1004AC007B68DA607B68DB68BA685200F96801FA2D
:1004BC0002F21A437B68DA607B689B68BA68520068
:1004CC00032101FA02F2D2431A407B689A607B68DE
:1004DC009B68BA685200032101FA02F21A437B6846
:1004EC009A607B6841F211121A627B6841F2111218
:1004FC005A621037BD4680BD80B584B000AFF8603D
:10050C00B9607A60786800F0B5F87B681B68BA68E7
:10051C005200032101FA02F2D2431A407B681A609E
:10052C007B681B68BA685200012101FA02F21A4377
:10053C007B681A607B685B680121BA6801FA02F279
:10054C00D2431A407B685A607B689B68BA68520039
:10055C00032101FA02F2D2431A407B689A607B684D
:10056C009B68BA685200F96801FA02F21A437B6878
:10057C009A601037BD4680BD80B584B000AFF8607E
:10058C00B9607A60786800F075F87B681B68BA68A7
:10059C005200032101FA02F2D2431A407B681A601E
:1005AC007B681A687B681A607B68DB68BA685200E3
:1005BC00032101FA02F2D2431A407B68DA607B68AD
:1005CC00DB68BA685200F96801FA02F21A437B68D8
:1005DC00DA601037BD4680BD80B483B000AF0346EF
:1005EC003960FB80FB88012202FA03F31A463B6850
:1005FC009A610C37BD465DF8047B704780B483B0BC
:10060C0000AF03463960FB80FB881033012202FAED
:10061C0003F31A463B689A610C37BD465DF8047BC0
:10062C00704700BF80B400AF074A074B1B6A23F02A
:10063C0001031362044A044B1B6C43F00103136463
:10064C00BD465DF8047B70470038024080B400AFB3
:10065C00074A074B5B6A23F010035362044A044BAE
:10066C005B6C43F010035364BD465DF8047B70472C
:10067C000038024080B485B000AF78607B6803F12D
:10068C003F4303F57E03002B01DA03F2FF339B1289
:10069C00FB600D490C4B1B690120FA6800FA02F251
:1006AC00D24313400B610849074B1B6B0120FA68BE
:1006BC0000FA02F2134343F480130B631437BD4664
:1006CC005DF8047B704700BF0038024080B500AF76
:1006DC00114A114B1B6843F0010313600E4B0022AF
:1006EC009A600D4A0C4B1B6823F0847323F48033FF
:1006FC001360094B094A5A60074A074B1B6823F4DD
:10070C0080231360044B0022DA6000F087F8044B5E
:10071C004FF000629A6080BD003802401030002417
:10072C0000ED00E080B487B000AF00233B610023F4
:10073C007B610223FB600023BB6002237B60324B96
:10074C009B6803F00C033B613B69042B07D0082B1F
:10075C0009D0002B3FD12D4B2D4A1A603FE02B4B7B
:10076C002C4A1A603BE0284B5B6803F480039B0D1A
:10077C00BB60254B5B6803F03F037B60BB68002BC1
:10078C000DD0244A7B68B2FBF3F21F4B596847F635
:10079C00C0730B409B0903FB02F37B610CE01C4A0A
:1007AC007B68B2FBF3F2184B596847F6C0730B40E9
:1007BC009B0903FB02F37B61134B5B6803F440332F
:1007CC001B0C01335B00FB607A69FB68B2FBF3F333
:1007DC000E4A136003E00D4B0D4A1A6000BF0A4B22
:1007EC009B6803F0F0031B090B4AD35CDBB23B6143
:1007FC00064B1A683B6922FA03F3044A13601C3750
:10080C00BD465DF8047B70470038024000000020B4
:10081C000024F40000127A000400002080B483B09D
:10082C0000AF00237B6000233B60434A424B1B68B4
:10083C0043F480331360404B1B6803F400333B607C
:10084C007B6801337B603B68002B04D17B6841F2F1
:10085C0088329342EFD1384B1B6803F40033002BE2
:10086C0002D001233B6001E000233B603B68012B7D
:10087C005CD1314A304B1B6C43F0805313642F4ACC
:10088C002E4B1B6843F4404313602B4A2A4B9B6846
:10089C009360294A284B9B6843F400439360264A93
:1008AC00254B9B6843F4A0539360234B244A5A6016
:1008BC00214A214B1B6843F08073136000BF1E4B11
:1008CC001B6803F00073002BF9D01C4A1B4B1B68F0
:1008DC0043F48033136000BF184B5B6803F4803320
:1008EC00002BF9D0154A154B1B6843F400331360E9
:1008FC0000BF124B5B6803F40033002BF9D0114B93
:10090C0040F205721A600C4A0B4B9B6823F00303F0
:10091C009360094A084B9B6843F00203936000BF45
:10092C00054B9B6803F00C03082BF9D10C37BD4623
:10093C005DF8047B704700BF003802400070004037
:10094C00085A4007003C024080B483B000AF4FF01F
:10095C0080435B6A7B604FF080431B6903F00203AA
:10096C005B083B603B68012B0BD14FF080424FF092
:10097C0080439B6943F0100393614FF08043002246
:10098C001A610C37BD465DF8047B704780B582B0A8
:10099C0000AF78607B68002B0CBF01230023DBB217
:1009AC007B607B68012B04D10F200649FFF714FEF6
:1009BC0003E00F200349FFF721FE7B681846083738
:1009CC00BD4680BD0018024080B582B000AF002348
:1009DC007B60074B1B683B604FF080435A6A044BAB
:1009EC001B689A4203D17868FFF7D0FF7860F3E771
:1009FC001800002080B483B000AF4FF080439B6B95
:100A0C007B6018460C37BD465DF8047B704700BF11
:100A1C0080B500AF4FF08040FFF7F0FB4FF0804007
:100A2C00FFF79AFC2A4B1B6818464FF08041FFF7E2
:100A3C00B9FC284B1B6818464FF08041FFF7C0FCEF
:100A4C00254B1B6818464FF08041FFF7C7FC502020
:100A5C004FF08041FFF78CFC4FF08040FFF744FCD7
:100A6C004FF080400221FFF7DFFB02200F211B4AD1
:100A7C00FFF742FD02200D21184AFFF73DFD022031
:100A8C000B21164AFFF738FD02200921134AFFF704
:100A9C0033FD01200021124A0123FFF7D9FC01206C
:100AAC000321104A0123FFF7D3FC01200A210D4A30
:100ABC000123FFF7CDFC01200321094A0123FFF795
:100ACC00C7FC4FF0804300221A61FFF793FFFCE74D
:100ADC0064040020140000201800002000180240BC
:100AEC00000002400004024070B50F4E0F4D761B03
:100AFC00B61018BF002405D0013455F8043B9847B4
:100B0C00A642F9D10A4E0B4D761B00F0B7F8B61081
:100B1C0018BF002406D0013455F8043B9847A64270
:100B2C00F9D170BD70BD00BFA80C0008A80C00085E
:100B3C00B00C0008A80C0008024B13B1024800F0DE
:100B4C0005B8704700000000650B00080146002046
:100B5C000246034600F016B838B5084B084DED1A9E
:100B6C00AC1018BFED1805D0013C55F8043D984762
:100B7C00002CF9D1BDE8384000F086B8B00C000864
:100B8C00B40C00082DE9F047254C2568D5F84841F0
:100B9C000646884692469946CCB360681F2818DCF6
:100BAC00431C7EB104EB80050121C5F888A0D4F864
:100BBC00887101FA00F21743022EC4F88871C5F847
:100BCC0008911ED00230636044F820800020BDE8FC
:100BDC00F087144B03B34FF4C870AFF30080044696
:100BEC00D0B1D5F84831002780E88800C5F84841D5
:100BFC0038460123C4F88871C4F88C71002EE1D0FA
:100C0C00D0E7D4F88C110A43C4F88C21DAE705F547
:100C1C00A674C5F84841C0E74FF0FF30BDE8F08737
:100C2C00A40C000800000000DFF834D0002103E021
:100C3C000C4B5B58435004310B480C4B42189A42F6
:100C4C00F6D30B4A02E0002342F8043B094B9A42CC
:100C5C00F9D3FFF73BFDFFF747FFFFF7D9FE7047CE
:100C6C00FFFF0220B40C0008000000204804002004
:100C7C004804002068040020FEE70000F8B500BF1F
:100C8C00F8BC08BC9E467047F8B500BFF8BC08BC61
:040C9C009E467047B9
:080CA0004300000020000020C9
:080CA800450B0008D101000812
:040CB000AD0100088A
:100CB4000095BA0A000000000000000001020304CD
:100CC40006070809020000000002000000000000FE
:100CD400000000000C03002074030020DC0300204B
:100CE4000000000000000000000000000000000000
:100CF40000000000000000000000000000000000F0
:100D040000000000A00C000800000000000000002B
:100D140000000000000000000000000000000000CF
:100D240000000000000000000000000000000000BF
:100D340000000000000000000000000000000000AF
:100D4400000000000000000000000000000000009F
:100D5400000000000000000000000000000000008F
:100D6400000000000000000000000000000000007F
:100D7400000000000000000001000000000000006E
:100D84000E33CDAB34126DE6ECDE05000B00000033
:100D9400000000000000000000000000000000004F
:100DA400000000000000000000000000000000003F
:100DB400000000000000000000000000000000002F
:100DC400000000000000000000000000000000001F
:0400000508000C35AE
:00000001FF
