:020000040800F2
:10000000FFFF0220450C0008950C0008950C000825
:10001000950C0008950C0008950C000800000000E5
:10002000000000000000000000000000950C000827
:10003000950C000800000000950C0008950C0008C5
:10004000950C0008950C0008950C0008950C00080C
:10005000950C0008950C0008950C0008950C0008FC
:10006000950C0008950C0008950C0008950C0008EC
:10007000950C0008950C0008950C0008950C0008DC
:10008000950C0008950C0008950C0008950C0008CC
:10009000950C0008950C0008950C0008950C0008BC
:1000A000950C0008950C0008950C0008950C0008AC
:1000B000950C0008950C0008950C0008950C00089C
:1000C000950C0008950C0008950C0008950C00088C
:1000D000950C0008950C0008950C0008950C00087C
:1000E000950C0008950C0008950C0008950C00086C
:1000F000950C0008950C0008950C0008950C00085C
:10010000950C0008950C0008950C0008950C00084B
:10011000950C0008950C0008950C0008950C00083B
:10012000950C0008950C0008950C0008950C00082B
:10013000950C0008950C0008950C0008950C00081B
:10014000950C0008950C0008950C0008950C00080B
:10015000950C0008950C0008950C0008950C0008FB
:10016000950C0008950C0008950C0008950C0008EB
:10017000950C0008950C0008950C00080000000084
:10018000950C0008950C0008950C0008950C0008CB
:10019000950C0008950C0008950C0008950C0008BB
:0C01A000950C0008950C0008950C000858
:1001AC0010B5054C237833B9044B13B10448AFF3A5
:1001BC0000800123237010BD4804002000000000C3
:1001CC00980C0008084B10B51BB108480849AFF350
:1001DC0000800848036803B910BD074B002BFBD007
:1001EC00BDE81040184700BF00000000980C000844
:1001FC004C040020480400200000000080B582B0B0
:10020C0000AF786000F0EAF97B6842F20842DA60ED
:10021C007B6878229A600837BD4680BD80B582B075
:10022C0000AF786000F0C6F97B6800221A607B682A
:10023C0005221A607B6800225A607B681F22DA60F4
:10024C000837BD4680BD00BF80B483B000AF786076
:10025C007B6801229A610C37BD465DF8047B7047C0
:10026C0080B483B000AF78607B6800229A617B68B1
:10027C000022DA617B6800221A627B6841F211125B
:10028C001A627B689B6923F003027B689A617B6826
:10029C009B6923F440727B689A617B68DB6923F06D
:1002AC0003027B68DA617B68DB6923F440727B684C
:1002BC00DA617B689B6923F4E04323F070037A686E
:1002CC0093617B68DB6923F4E04323F070037A6865
:1002DC00D3617B689B6943F040027B689A617B68C1
:1002EC00DB6943F050027B68DA610C37BD465DF880
:1002FC00047B704780B483B000AF78600C37BD4688
:10030C005DF8047B704700BF80B483B000AF7860A9
:10031C007B6800221A610C37BD465DF8047B704780
:10032C0080B483B000AF78607B6800225A610C37D0
:10033C00BD465DF8047B704780B483B000AF786035
:10034C0039603B687A685A620C37BD465DF8047BAD
:10035C00704700BF80B483B000AF786039603B68F1
:10036C007A689A620C37BD465DF8047B704700BF13
:10037C0080B483B000AF786039603B687A68DA6229
:10038C000C37BD465DF8047B704700BF80B584B068
:10039C0000AFF860B9607A60786800F033F97B6878
:1003AC001B68BA685200032101FA02F21A437B68F7
:1003BC001A607B68DB68BA685200032101FA02F20A
:1003CC00D2431A407B68DA607B68DB68BA685200FB
:1003DC00F96801FA02F21A437B68DA601037BD46FD
:1003EC0080BD00BF80B584B000AFF860B9607A60A2
:1003FC00786800F007F97B681B68BA685200032123
:10040C0001FA02F2D2431A407B681A607B681B68BF
:10041C00BA685200022101FA02F21A437B681A6090
:10042C007B68DB68BA685200032101FA02F2D243FE
:10043C001A407B68DA607B68DB68BA685200F9683E
:10044C0001FA02F21A437B68DA607B689B68BA682F
:10045C005200032101FA02F2D2431A407B689A60DF
:10046C007B689B68BA685200032101FA02F21A43B6
:10047C007B689A607B685B6A43F070027B685A62A7
:10048C001037BD4680BD00BF80B584B000AFF860AA
:10049C00B9607A60786800F0B5F87B681B68BA6858
:1004AC005200032101FA02F2D2431A407B681A600F
:1004BC007B681B68BA685200012101FA02F21A43E8
:1004CC007B681A607B685B680121BA6801FA02F2EA
:1004DC00D2431A407B685A607B689B68BA685200AA
:1004EC00032101FA02F2D2431A407B689A607B68BE
:1004FC009B68BA685200F96801FA02F21A437B68E9
:10050C009A601037BD4680BD80B584B000AFF860EE
:10051C00B9607A60786800F075F87B681B68BA6817
:10052C005200032101FA02F2D2431A407B681A608E
:10053C007B681A687B681A607B68DB68BA68520053
:10054C00032101FA02F2D2431A407B68DA607B681D
:10055C00DB68BA685200F96801FA02F21A437B6848
:10056C00DA601037BD4680BD80B483B000AF03465F
:10057C003960FB80FB88012202FA03F31A463B68C0
:10058C009A610C37BD465DF8047B704780B483B02C
:10059C0000AF03463960FB80FB881033012202FA5E
:1005AC0003F31A463B689A610C37BD465DF8047B31
:1005BC00704700BF80B400AF074A074B1B6A23F09B
:1005CC0001031362044A044B1B6C43F001031364D4
:1005DC00BD465DF8047B70470038024080B400AF24
:1005EC00074A074B5B6A23F010035362044A044B1F
:1005FC005B6C43F010035364BD465DF8047B70479D
:10060C000038024080B485B000AF78607B6803F19D
:10061C003F4303F57E03002B01DA03F2FF339B12F9
:10062C00FB600D490C4B1B690120FA6800FA02F2C1
:10063C00D24313400B610849074B1B6B0120FA682E
:10064C0000FA02F2134343F480130B631437BD46D4
:10065C005DF8047B704700BF0038024080B500AFE6
:10066C00114A114B1B6843F0010313600E4B00221F
:10067C009A600D4A0C4B1B6823F0847323F480336F
:10068C001360094B094A5A60074A074B1B6823F44D
:10069C0080231360044B0022DA6000F087F8044BCF
:1006AC004FF000629A6080BD003802401030002488
:1006BC0000ED00E080B487B000AF00233B61002365
:1006CC007B610223FB600023BB6002237B60324B07
:1006DC009B6803F00C033B613B69042B07D0082B90
:1006EC0009D0002B3FD12D4B2D4A1A603FE02B4BEC
:1006FC002C4A1A603BE0284B5B6803F480039B0D8B
:10070C00BB60254B5B6803F03F037B60BB68002B31
:10071C000DD0244A7B68B2FBF3F21F4B596847F6A5
:10072C00C0730B409B0903FB02F37B610CE01C4A7A
:10073C007B68B2FBF3F2184B596847F6C0730B4059
:10074C009B0903FB02F37B61134B5B6803F440339F
:10075C001B0C01335B00FB607A69FB68B2FBF3F3A3
:10076C000E4A136003E00D4B0D4A1A6000BF0A4B92
:10077C009B6803F0F0031B090B4AD35CDBB23B61B3
:10078C00064B1A683B6922FA03F3044A13601C37C0
:10079C00BD465DF8047B7047003802400000002025
:1007AC000024F40000127A000400002080B483B00E
:1007BC0000AF00237B6000233B60434A424B1B6825
:1007CC0043F480331360404B1B6803F400333B60ED
:1007DC007B6801337B603B68002B04D17B6841F262
:1007EC0088329342EFD1384B1B6803F40033002B53
:1007FC0002D001233B6001E000233B603B68012BEE
:10080C005CD1314A304B1B6C43F0805313642F4A3C
:10081C002E4B1B6843F4404313602B4A2A4B9B68B6
:10082C009360294A284B9B6843F400439360264A03
:10083C00254B9B6843F4A0539360234B244A5A6086
:10084C00214A214B1B6843F08073136000BF1E4B81
:10085C001B6803F00073002BF9D01C4A1B4B1B6860
:10086C0043F48033136000BF184B5B6803F4803390
:10087C00002BF9D0154A154B1B6843F40033136059
:10088C0000BF124B5B6803F40033002BF9D0114B03
:10089C0040F205721A600C4A0B4B9B6823F0030361
:1008AC009360094A084B9B6843F00203936000BFB6
:1008BC00054B9B6803F00C03082BF9D10C37BD4694
:1008CC005DF8047B704700BF0038024000700040A8
:1008DC00085A4007003C024080B584B000AFF86075
:1008EC00B9607A607B68002B06D0FB689BB2184617
:1008FC00B968FFF739FE05E0FB689BB21846B9688A
:10090C00FFF744FE1037BD4680BD00BF80B582B0F6
:10091C0000AF78607B68002B0CBF01230023DBB297
:10092C007B607B68012B04D10F200649FFF71CFE6E
:10093C0003E00F200349FFF729FE7B6818460837B0
:10094C00BD4680BD0018024080B584B000AF0023C6
:10095C00FB60194B1B68BB6014E00AE04FF080434E
:10096C005B6A322B01D1FF23BB604FF080435B6A83
:10097C007B604FF080435B6A3E2BEFD9F868FFF742
:10098C00C5FFF860BB683F2BE7D0B8684FF08041DB
:10099C00FFF7EEFCBB68FF2B0DD103E04FF080435B
:1009AC005B6A7B604FF080435B6AFE2BF6D9F8687C
:1009BC00FFF7ACFFF860CFE71800002080B586B0D9
:1009CC0000AF4FF08040FFF729FC4548FFF716FCBD
:1009DC004FF08040FFF798FC424B1B6818464FF0D5
:1009EC008041FFF7A9FC404B1B6818464FF0804133
:1009FC00FFF7B0FC3D4B1B6818464FF08041FFF7EA
:100A0C00B7FC4FF08040FFF72BFC02200F21384A37
:100A1C00FFF73AFD02200D21354AFFF735FD022084
:100A2C000B21334AFFF730FD02200921304AFFF732
:100A3C002BFD4FF0804302225A634FF0804300227B
:100A4C001A614FF080431B6903F002035B087B6162
:100A5C004FF080431B6903F004039B083B614FF08C
:100A6C0080431B6903F00803DB08FB604FF08043F5
:100A7C001B6903F010031B09BB60012000211D4AF8
:100A8C00FFF7B0FC4FF080435B6A7B604FF0804215
:100A9C004FF080439B6943F0400393614FF08042D9
:100AAC004FF080439B6943F0500393614FF08043B8
:100ABC001B6903F002035B087B617B69012B0AD184
:100ACC0009200B49FFF750FD4FF0804300221A61BB
:100ADC0000237B6103E009200549FFF757FDD1E7AF
:100AEC0000100140640400201400002018000020B5
:100AFC00001802400000024070B50F4E0F4D761BDF
:100B0C00B61018BF002405D0013455F8043B9847A3
:100B1C00A642F9D10A4E0B4D761B00F0B7F8B61071
:100B2C0018BF002406D0013455F8043B9847A64260
:100B3C00F9D170BD70BD00BFB80C0008B80C00082E
:100B4C00C00C0008B80C0008024B13B1024800F0AE
:100B5C0005B8704700000000750B00080146002026
:100B6C000246034600F016B838B5084B084DED1A8E
:100B7C00AC1018BFED1805D0013C55F8043D984752
:100B8C00002CF9D1BDE8384000F086B8C00C000844
:100B9C00C40C00082DE9F047254C2568D5F84841D0
:100BAC000646884692469946CCB360681F2818DCE6
:100BBC00431C7EB104EB80050121C5F888A0D4F854
:100BCC00887101FA00F21743022EC4F88871C5F837
:100BDC0008911ED00230636044F820800020BDE8EC
:100BEC00F087144B03B34FF4C870AFF30080044686
:100BFC00D0B1D5F84831002780E88800C5F84841C5
:100C0C0038460123C4F88871C4F88C71002EE1D0E9
:100C1C00D0E7D4F88C110A43C4F88C21DAE705F537
:100C2C00A674C5F84841C0E74FF0FF30BDE8F08727
:100C3C00B40C000800000000DFF834D0002103E001
:100C4C000C4B5B58435004310B480C4B42189A42E6
:100C5C00F6D30B4A02E0002342F8043B094B9A42BC
:100C6C00F9D3FFF7FBFCFFF747FFFFF7A7FE704731
:100C7C00FFFF0220C40C00080000002048040020E4
:100C8C004804002068040020FEE70000F8B500BF0F
:100C9C00F8BC08BC9E467047F8B500BFF8BC08BC51
:040CAC009E467047A9
:080CB0004300000020000020B9
:080CB800550B0008D1010008F2
:040CC000AD0100087A
:100CC4000095BA0A000000000000000001020304BD
:100CD40006070809020000003F00000000000000B1
:100CE400000000000C03002074030020DC0300203B
:100CF40000000000000000000000000000000000F0
:100D040000000000000000000000000000000000DF
:100D140000000000B00C000800000000000000000B
:100D240000000000000000000000000000000000BF
:100D340000000000000000000000000000000000AF
:100D4400000000000000000000000000000000009F
:100D5400000000000000000000000000000000008F
:100D6400000000000000000000000000000000007F
:100D7400000000000000000000000000000000006F
:100D8400000000000000000001000000000000005E
:100D94000E33CDAB34126DE6ECDE05000B00000023
:100DA400000000000000000000000000000000003F
:100DB400000000000000000000000000000000002F
:100DC400000000000000000000000000000000001F
:100DD400000000000000000000000000000000000F
:0400000508000C459E
:00000001FF
