:020000040800F2
:10000000FFFF0220AD090008FD090008FD090008F6
:10001000FD090008FD090008FD09000800000000B6
:10002000000000000000000000000000FD090008C2
:10003000FD09000800000000FD090008FD09000896
:10004000FD090008FD090008FD090008FD09000878
:10005000FD090008FD090008FD090008FD09000868
:10006000FD090008FD090008FD090008FD09000858
:10007000FD090008FD090008FD090008FD09000848
:10008000FD090008FD090008FD090008FD09000838
:10009000FD090008FD090008FD090008FD09000828
:1000A000FD090008FD090008FD090008FD09000818
:1000B000FD090008FD090008FD090008FD09000808
:1000C000FD090008FD090008FD090008FD090008F8
:1000D000FD090008FD090008FD090008FD090008E8
:1000E000FD090008FD090008FD090008FD090008D8
:1000F000FD090008FD090008FD090008FD090008C8
:10010000FD090008FD090008FD090008FD090008B7
:10011000FD090008FD090008FD090008FD090008A7
:10012000FD090008FD090008FD090008FD09000897
:10013000FD090008FD090008FD090008FD09000887
:10014000FD090008FD090008FD090008FD09000877
:10015000FD090008FD090008FD090008FD09000867
:10016000FD090008FD090008FD090008FD09000857
:10017000FD090008FD090008FD0900080000000055
:10018000FD090008FD090008FD090008FD09000837
:10019000FD090008FD090008FD090008FD09000827
:0C01A000FD090008FD090008FD09000829
:1001AC0010B5054C237833B9044B13B10448AFF3A5
:1001BC0000800123237010BD4004002000000000CB
:1001CC00000A0008084B10B51BB108480849AFF3EA
:1001DC0000800848036803B910BD074B002BFBD007
:1001EC00BDE81040184700BF00000000000A0008DE
:1001FC0044040020400400200000000080B582B0C0
:10020C0000AF786000F058F87B6800221A607B68B9
:10021C0005221A607B6800225A600837BD4680BDF3
:10022C0080B483B000AF78600C37BD465DF8047BBA
:10023C00704700BF80B483B000AF78607B68002249
:10024C001A610C37BD465DF8047B704780B483B0EF
:10025C0000AF78607B6800225A610C37BD465DF8B0
:10026C00047B704780B483B000AF786039603B6822
:10027C007A685A620C37BD465DF8047B704700BF44
:10028C0080B483B000AF786039603B687A689A625A
:10029C000C37BD465DF8047B704700BF80B483B05B
:1002AC0000AF786039603B687A68DA620C37BD461B
:1002BC005DF8047B704700BF80B400AF074A074B62
:1002CC001B6A23F001031362044A044B1B6C43F0BA
:1002DC0001031364BD465DF8047B7047003802408F
:1002EC0080B485B000AF78607B6803F13F4303F5C1
:1002FC007E03002B01DA03F2FF339B12FB600D49E6
:10030C000C4B1B690120FA6800FA02F2D24313402D
:10031C000B610849074B1B6B0120FA6800FA02F2CB
:10032C00134343F480130B631437BD465DF8047B11
:10033C00704700BF0038024080B584B000AFF86051
:10034C00B9607A607868FFF7CBFF7B681B68BA6886
:10035C005200032101FA02F21A437B681A607B688F
:10036C00DB68BA685200032101FA02F2D2431A4048
:10037C007B68DA607B68DB68BA685200F96801FA5E
:10038C0002F21A437B68DA601037BD4680BD00BFAD
:10039C0080B584B000AFF860B9607A607868FFF718
:1003AC009FFF7B681B68BA685200032101FA02F2B6
:1003BC00D2431A407B681A607B681B68BA6852008B
:1003CC00022101FA02F21A437B681A607B68DB682F
:1003DC00BA685200032101FA02F2D2431A407B6838
:1003EC00DA607B68DB68BA685200F96801FA02F2DD
:1003FC001A437B68DA601037BD4680BD80B584B087
:10040C0000AFF860B9607A607868FFF769FF7B68C5
:10041C001B68BA685200032101FA02F2D2431A4057
:10042C007B681A607B681B68BA685200012101FA6C
:10043C0002F21A437B681A607B685B680121BA6818
:10044C0001FA02F2D2431A407B685A607B689B68BF
:10045C00BA685200032101FA02F2D2431A407B68B7
:10046C009A607B689B68BA685200F96801FA02F2DC
:10047C001A437B689A601037BD4680BD80B584B046
:10048C0000AFF860B9607A607868FFF729FF7B6885
:10049C001B68BA685200032101FA02F2D2431A40D7
:1004AC007B681A607B681A687B681A607B68DB68FB
:1004BC00BA685200032101FA02F2D2431A407B6857
:1004CC00DA607B68DB68BA685200F96801FA02F2FC
:1004DC001A437B68DA601037BD4680BD80B483B0A8
:1004EC0000AF03463960FB80FB88012202FA03F35C
:1004FC001A463B689A610C37BD465DF8047B704721
:10050C0080B483B000AF03463960FB80FB881033A6
:10051C00012202FA03F31A463B689A610C37BD4676
:10052C005DF8047B704700BF80B500AF114A114BDA
:10053C001B6843F0010313600E4B00229A600D4AB6
:10054C000C4B1B6823F0847323F480331360094B2A
:10055C00094A5A60074A074B1B6823F4802313602F
:10056C00044B0022DA6000F087F8044B4FF0006275
:10057C009A6080BD003802401030002400ED00E08D
:10058C0080B487B000AF00233B6100237B61022362
:10059C00FB600023BB6002237B60324B9B6803F043
:1005AC000C033B613B69042B07D0082B09D0002BB3
:1005BC003FD12D4B2D4A1A603FE02B4B2C4A1A6031
:1005CC003BE0284B5B6803F480039B0DBB60254B21
:1005DC005B6803F03F037B60BB68002B0DD0244AA3
:1005EC007B68B2FBF3F21F4B596847F6C0730B40A4
:1005FC009B0903FB02F37B610CE01C4A7B68B2FB9A
:10060C00F3F2184B596847F6C0730B409B0903FB78
:10061C0002F37B61134B5B6803F440331B0C013317
:10062C005B00FB607A69FB68B2FBF3F30E4A136064
:10063C0003E00D4B0D4A1A6000BF0A4B9B6803F098
:10064C00F0031B090B4AD35CDBB23B61064B1A6807
:10065C003B6922FA03F3044A13601C37BD465DF86C
:10066C00047B704700380240000000200024F40096
:10067C0000127A000400002080B483B000AF002385
:10068C007B6000233B60434A424B1B6843F480333E
:10069C001360404B1B6803F400333B607B680133F1
:1006AC007B603B68002B04D17B6841F2883293421B
:1006BC00EFD1384B1B6803F40033002B02D001231D
:1006CC003B6001E000233B603B68012B5CD1314A6D
:1006DC00304B1B6C43F0805313642F4A2E4B1B681A
:1006EC0043F4404313602B4A2A4B9B689360294A7E
:1006FC00284B9B6843F400439360264A254B9B6828
:10070C0043F4A0539360234B244A5A60214A214B53
:10071C001B6843F08073136000BF1E4B1B6803F013
:10072C000073002BF9D01C4A1B4B1B6843F480331D
:10073C00136000BF184B5B6803F48033002BF9D0B7
:10074C00154A154B1B6843F40033136000BF124B62
:10075C005B6803F40033002BF9D0114B40F20572A7
:10076C001A600C4A0B4B9B6823F003039360094AF5
:10077C00084B9B6843F00203936000BF054B9B68DA
:10078C0003F00C03082BF9D10C37BD465DF8047B44
:10079C00704700BF0038024000700040085A400704
:1007AC00003C024080B483B000AF786002E07B680C
:1007BC00013B7B607B68002BF9DC0C37BD465DF898
:1007CC00047B704780B586B000AF10233B614FF6B9
:1007DC00FF73FB60FF23BB6000237B614FF0804005
:1007EC00FFF70CFD4FF08040FFF724FD38694FF008
:1007FC008041FFF737FDF8684FF08041FFF740FD6F
:10080C00B8684FF08041FFF749FD02200F21134AD1
:10081C00FFF7F4FD02200D21104AFFF7EFFD03E076
:10082C004FF080435B6A7B604FF080435B6AFE2B2A
:10083C00F6D97B69002B0CBF01230023DBB27B6153
:10084C007B69012B04D10F200449FFF747FE03E01D
:10085C000F200249FFF754FEE1E700BF00180240E9
:10086C0070B50F4E0F4D761BB61018BF002405D077
:10087C00013455F8043B9847A642F9D10A4E0B4D6A
:10088C00761B00F0B7F8B61018BF002406D0013460
:10089C0055F8043B9847A642F9D170BD70BD00BF16
:1008AC00200A0008200A0008280A0008200A00086C
:1008BC00024B13B1024800F005B87047000000006D
:1008CC00DD080008014600200246034600F016B879
:1008DC0038B5084B084DED1AAC1018BFED1805D003
:1008EC00013C55F8043D9847002CF9D1BDE838403F
:1008FC0000F086B8280A00082C0A00082DE9F047F9
:10090C00254C2568D5F848410646884692469946B6
:10091C00CCB360681F2818DC431C7EB104EB800547
:10092C000121C5F888A0D4F8887101FA00F21743A8
:10093C00022EC4F88871C5F808911ED0023063608D
:10094C0044F820800020BDE8F087144B03B34FF42B
:10095C00C870AFF300800446D0B1D5F848310027F9
:10096C0080E88800C5F8484138460123C4F88871EE
:10097C00C4F88C71002EE1D0D0E7D4F88C110A4366
:10098C00C4F88C21DAE705F5A674C5F84841C0E730
:10099C004FF0FF30BDE8F0871C0A00080000000093
:1009AC00DFF834D0002103E00C4B5B58435004318A
:1009BC000B480C4B42189A42F6D30B4A02E0002328
:1009CC0042F8043B094B9A42F9D3FFF7ADFDFFF710
:1009DC0047FFFFF7F7FE7047FFFF02202C0A0008C5
:1009EC000000002040040020400400205C04002093
:1009FC00FEE70000F8B500BFF8BC08BC9E46704787
:0C0A0C00F8B500BFF8BC08BC9E4670475F
:080A180043000000180000205B
:080A2000BD080008D101000827
:040A2800AD01000814
:100A2C000095BA0A00000000000000000102030457
:100A3C000607080900000000000000000403002065
:100A4C006C030020D4030020000000000000000014
:100A5C00000000000000000000000000000000008A
:100A6C00000000000000000000000000180A000850
:100A7C00000000000000000000000000000000006A
:100A8C00000000000000000000000000000000005A
:100A9C00000000000000000000000000000000004A
:100AAC00000000000000000000000000000000003A
:100ABC00000000000000000000000000000000002A
:100ACC00000000000000000000000000000000001A
:100ADC00000000000000000000000000000000000A
:100AEC0001000000000000000E33CDAB34126DE6A7
:100AFC00ECDE05000B000000000000000000000010
:100B0C0000000000000000000000000000000000D9
:100B1C0000000000000000000000000000000000C9
:100B2C0000000000000000000000000000000000B9
:100B3C0000000000000000000000000000000000A9
:04000005080009AD39
:00000001FF
